:020000040000FA
:1000000010050020D900000051180000471800001A
:1000100000000000000000000000000000000000E0
:100020000000000000000000000000007519000042
:100030000000000000000000FD180000EF000000BC
:10004000C92000004F180000711900008F13000034
:10005000151A000005170000071700000000000037
:100060000000000000000000000000000000000090
:100070006713000069130000D11F00003F0E00004D
:100080004518000000000000000000004D180000AE
:100090006B1300006D1300006F1300004B1800007D
:1000A0000000000073190000000000008D1B00001C
:1000B0008F1B000000000000000000008D130000F6
:1000C0000448854600F01EFB004800474529000013
:1000D000C046C04610050020064908688546064807
:1000E000804706480047FEE7FEE7FEE7FEE7FEE73B
:1000F000FEE7000000000000511B0000C1000000EE
:1001000030B50B46014600202022012409E00D46AF
:10011000D5409D4205D31D469540491B2546954037
:1001200040191546521E002DF1DC30BDD2B201E05F
:100130000270401C491EFBD270470022F6E710B542
:1001400013460A4604461946FFF7F0FF204610BD45
:10015000F8B502464A40D40F42004B0052085B08F3
:100160009A4202D20246084611464A0023D0C30DE5
:100170004A00DDB2120EAD1A202D35DA49020126F1
:10018000490AF6058A19002C00D0524220214F1B43
:100190001146B9402A411018C20D9A4221D0002CB4
:1001A00017D0012D08DCDA05801AD20F8019D2078A
:1001B000DBB200F00FFAF8BDDA05801A0123400027
:1001C0001B06C01880185A428018CA0F10434900F5
:1001D00007E04908C2071143DA05801A8019400870
:1001E000801800F0EFF9F8BD61000122511A001BE0
:1001F000F7E70122D2075140AAE70122D207504077
:10020000A6E7024670B54A40D30FDB0740002DD069
:100210004A002AD0010E140E000212020919400AE7
:10022000520A8418E50104465443000A120A2E04B7
:100230005043A4194219200CC543AA18120C0125D9
:10024000AD03521C521912047F39240400D0521CF1
:10025000104301D44000491EC2B20C06C009201848
:10026000401C4008802A02D003E0002070BD4008F6
:100270004000002900DA0020184370BD70B5024626
:100280004A40D50F40004A00ED07400852080028B8
:1002900014D0002A12D0C40DD30D41020120C00594
:1002A0005202490A520AE41A091812187D3491427E
:1002B00001D3641C00E04900002C01DA002070BD6D
:1002C0000023914201D3891A0343400849000028C2
:1002D000F7D100290AD0914202D10121C90705E0D6
:1002E000914201D2012101E00121C943E005C0187A
:1002F000401900F067F970BDF0B507460846584050
:1003000087B0C00F049048000E46590040084908C5
:10031000BC1A884105D2384631461E4617460B4660
:1003200002465800400810434DD0300D0390400560
:100330005900400D490D0590401A0290402873DA8B
:1003400018030121000B090508430190049800924D
:10035000002806D01146019A4942002090410091A0
:100360000190029840210A1A0199009800F0F6F8CD
:1003700005460C466B4607CB00F011F9C0197141D8
:10038000039A0E0D0023D71756401A467A4016439B
:1003900044D0049A002A2DD0029A012A039A15DC2F
:1003A0001205C01A914101263605001C7141D20F79
:1003B000059ED2070093019202962A46234600F03A
:1003C0004FF907B0F0BD38463146FAE71605234A23
:1003D0000F46B218C01AB74101210905001C4F4150
:1003E00000187F41114618187941E20F10436D192A
:1003F000644113E0E2076D0815436408C207144323
:10040000039A01261205C01A91413605001C71415C
:10041000CE07400830434908C01851412A462346B8
:1004200000F011F9CDE7FFE7049801224000C11761
:10043000121A00238B4104983146C417381AA1417F
:10044000EEE730B40124E407634030BC54E730B435
:100450000124E407614030BC4EE700000000E0FFEB
:1004600010B500229623114600F0B4F810BD4100EB
:1004700040020122400AD205090E80187F2901DAC4
:1004800000207047962903DC9622511AC840704715
:1004900096398840704700004A0009030123090B80
:1004A0001B051943094B10B5520D9A4201DA002081
:1004B00010BD064B34339A4203DC9A1A00F05EF802
:1004C00010BD03495118884010BD0000FF03000013
:1004D000CDFBFFFFC20FD207400040080BD0C10D7B
:1004E0000723DB01C91840020905400A1143C2086D
:1004F000400711437047002001467047F0B51FB414
:100500000646002082B005464024019100901BE081
:10051000019922460F46304600F030F8049A059BB8
:10052000801A994110D310461946224600F016F859
:10053000361A8F410197224601200021009F00F0CA
:100540000DF838184D4100902046641E0028DFDC6D
:10055000019B00982946324607B0F0BD10B5202A0D
:1005600004DB0146203A9140002010BD9140202339
:100570009C1A0346E3401943904010BD10B5202A51
:1005800004DB0846203AD040002110BD0B46D34082
:10059000D0402024A21A91400843194610BD10B53E
:1005A000202A06DBCB170846203A1041C1170B431F
:1005B00006E00B461341D0402024A21A9140084384
:1005C000194610BD002904DA401C490001D1400839
:1005D0004000704770B40024050C05D110240004BD
:1005E00002D1002921D01124050E01D100020834C6
:1005F000050F01D10001241D850F01D18000A41C2D
:10060000002801DB4000641C002908D020252E1B97
:100610000D46F540A14000D00121294308430106C1
:100620001B1B000ADB1D02D5002070BC7047DB05D8
:10063000181880180029F8DA401C4900F5D170BC60
:1006400040084000704710B5002B08DA0024401C19
:10065000614192185B411A4301D14008400010BD2E
:10066000F0B51FB482B005460C0003D0084601F077
:10067000ABFE02E001F0A8FE2030024600902146C9
:100680002846FFF76BFF049B059A04460F46184364
:100690001143084314D0184610431BD00098402142
:1006A0000A1A18460599FFF769FF05460E46009A93
:1006B00005990498FFF752FF084305D0012004E094
:1006C0002046394607B0F0BD0020C11705430E4350
:1006D0002C43374300990E986305401A7905E40AC4
:1006E00000220C43FD0A0A3002D500200146E9E74A
:1006F0000105101969410C9C0D9D00196941FFF716
:10070000A2FFDFE7064C0125064E05E0E36807CCB3
:100710002B430C3C98471034B442F7D3FFF7D4FC7A
:10072000482B0000682B0000F3B5C5B0FA48459986
:1007300000F0DEFBF949884275D1F748407823285C
:1007400072D006DC012809D020286ED021286DD176
:100750007DE12B286CD02C28F9D19CE1EE48007863
:100760002621084026285DD1002168460175417583
:10077000EB4800788002032189034018017868461D
:100780008175E74800788002032189034018417889
:100790006846C175E2480078800203218903401849
:1007A000817868460176DE4800788002032189035B
:1007B0004018C17868464176D94800788002032104
:1007C00089034018017968468176D548007880020F
:1007D00003218903401841796846C176D0480078E2
:1007E0008002032189034018817968460177CC484B
:1007F00000788002032189034018C1796846417757
:100800000A2105A800F074FB04466846847720128C
:100810006946C877C0480078C207D20F0C2105A8E6
:1008200000F05CFC81E181E180E07EE07CE1FFE7BB
:100830000021684601750F214175B9480078800292
:10084000032189034018017868468175B44800780F
:10085000800203218903401841786846C175B04879
:100860000078800203218903401881786846017668
:10087000AB4800788002032189034018C17868469C
:100880004176A74800788002032189034018017946
:1008900068468176A24800788002032189034018C7
:1008A00041796846C1769E48007880020321890319
:1008B00040188179684601779948007880020321C1
:1008C00089034018C17968464177954800788002CD
:1008D000032189034018C17A6846817790480078DF
:1008E0008002032189034018817A6846C1778D48C8
:1008F000017808A801704698401EC1B208A841704E
:10090000012181700F2105A800F0F2FA044608A821
:10091000C470201208A908717F480078C207D20F5E
:10092000112105A800F0DAFBFFE000BF00277A489C
:10093000007820210840002800D00827B81C7649FC
:10094000085C03900120029008464078232804D1D7
:10095000F81C085C401CC0B20290029946984843BB
:10096000401C86B2002001906B480078402108406E
:10097000002804D00298301886B201200190029914
:100980000398411867480078801C81425EDA002095
:1009900069460875002542E0019946984018684369
:1009A000401CC0B200905C480078402108400028FC
:1009B00003D0002105AA0098115403984019594901
:1009C0000978884220DC0020049018E05448007820
:1009D0008002032189034018103003994919469A6F
:1009E0005143411804980A5C0199009841180498F1
:1009F000081805A90A540498401C80B2049046992E
:100A000004988842E2DB08E005AA0099521801998F
:100A1000501803224699FFF789FB681C85B202989B
:100A20008542B9DB314605A800F062FA044605A903
:100A30008C55201205AA711C505437480078C20703
:100A4000D20FB01C81B205A800F048FB6DE0002772
:100A50003148007820210840002800D00827B81C21
:100A60002D49085C0390002F14D1002168460175C0
:100A7000012105A800F03CFA04466846447520129E
:100A80006946887524480078C207D20F032105A85B
:100A900000F024FB49E000271F480078202108408F
:100AA000002800D00827B81C1B49085C0390F81CDC
:100AB000085C02901B4801780398091A0298814249
:100AC00006DC184801780398081A401CC0B202904E
:100AD000002069460875002504E00021681C05AA6D
:100AE000115485B202988542F7DB0298461C3146C4
:100AF00005A800F0FDF9044605A98C55201205AAA9
:100B0000711C505404480078C207D20FB01C81B247
:100B100005A800F0E3FA08E00C000020470F0000F1
:100B2000050000200600002000BF00BF47B0F0BD58
:100B300030B5C3B00546012D13D1D9480078262819
:100B400003D0D748007852280BD14421684601735E
:100B50000021417303AB0022022103A800F0A6FB91
:100B60006BE1022D35D1CE480078932831D1CC48A5
:100B7000407820282DD1882168460173C948007823
:100B80008002072149034018017868464173C5482F
:100B90000078800207214903401841786846817334
:100BA000C0480078800207214903401881786846D0
:100BB000C173BC4800788002072149034018C178FE
:100BC0006846017403AB0022052103A800F06EFB08
:100BD00033E1022D3BD1B2480078952837D1B04897
:100BE0004078202833D1AF4800788002072149039C
:100BF0004018017968460173AA48007880020721ED
:100C000049034018417968464173A648007880023C
:100C1000072149034018817968468173A14800780B
:100C20008002072149034018C1796846C1739D4875
:100C300000788002072149034018017A6846017450
:100C400003AB0022052103A800F030FBF5E0092DDD
:100C500015D193480078932811D191484078702895
:100C60000DD1042069460873012103A800F085FA1C
:100C700003AB0022032103A800F018FBDDE0092DDF
:100C800015D187480078952811D18548407870287B
:100C90000DD1002069460873012103A800F06DFA08
:100CA00003AB0022032103A800F000FBC5E0042DE4
:100CB00021D17B48007830281DD100240EE07948EE
:100CC0000078800207214903401875494978890056
:100CD0004018005D03A90855601C84B2102CEEDB9F
:100CE000102103A800F049FA03AB0022122103A847
:100CF00000F0DCFAA1E0032D2ED1694800786028CD
:100D00002AD1694801786846017367484178684686
:100D1000417365488178684681736348C178684645
:100D2000C17361480179684601745F48417968463A
:100D300041745D488179684681745B48C179684631
:100D4000C174082103A800F018FA03AB00220A219D
:100D500003A800F0ABFA70E0042D17D150480078DA
:100D60003C2813D1002404E0002003A90855601C8E
:100D700084B2202CF8DB202103A800F0FEF903AB9D
:100D80000022222103A800F091FA56E0052D37D168
:100D9000434800783A2833D100240EE041480078D7
:100DA00080020721490340183D4949788900091903
:100DB000405C03A90855601C84B2394880783849E2
:100DC0004978401A401C8000A042E7DC3448807813
:100DD000334A5278801A401C8004010C03A800F0AA
:100DE000CCF92F4880782E4A5278801A401C800017
:100DF000801C81B203AB002203A800F057FA1CE06C
:100E0000082D14D126480078A22810D10A2000F01D
:100E100034FA234840792249097900910190204809
:100E2000C3788278417821A001F0BEFA05E01C4821
:100E30000278294627A001F0B7FA43B030BD10B5BB
:100E40002848806B40218843264988630846C06B48
:100E500040084000C8632448007801F037F9044690
:100E6000002C0BD020480078002804D00421204614
:100E7000FFF75AFC02E02046FFF75AFE00201B490C
:100E80000860886148621748C06B400840001549F7
:100E9000C8630846806B402108431249886310BD2F
:100EA0000C00002005000020F82A00006164647234
:100EB00020646174613A2025303278202530327800
:100EC0002025303278202530327820253032780ABB
:100ED00000000000434D443A20256420253032783C
:100EE0000A0000008000004004000020004800408C
:100EF00070B503460C46FC49002213E0985C414063
:100F000000250BE0C807C00F002804D04810F74E9A
:100F10007040014600E04910681CC5B2082DF1DBA5
:100F2000501C82B2A242E9DBC84380B270BD1020DF
:100F3000EF49C86100BFEF4800690028FBD00020DE
:100F4000EC4988611020EA49886100BFE9480069DE
:100F50000028FBD00020E749886170471020E44951
:100F6000886100BFE34800690028FBD00020E14908
:100F700088611020DE49C86100BFDE480069002892
:100F8000FBD00020DB4988617047DB4800684008DF
:100F90004000401CD84908601020D549886100BF36
:100FA000D44800690028FBD00020D249886100BFE6
:100FB000D04800690028FBD00020CE49886100BFDE
:100FC000CC4800690028FBD00020CA498861102065
:100FD000C749C86100BFC74800690028FBD000208E
:100FE000C449886100BFC34800690028FBD00020C5
:100FF000C049886100BFBF4800690028FBD00020BD
:10100000BC4988611020BA49886100BFB9480069AD
:101010000028FBD00020B74988611020B449C8617E
:1010200000BFB44800690028FBD00020B1498861A6
:1010300070471020AE49C86100BFAE480069002863
:10104000FBD00020AB4988611020A949886100BF0E
:10105000A84800690028FBD00020A649886110201C
:10106000A349C86100BFA34800690028FBD0002045
:10107000A049886100BF9F4800690028FBD000207C
:101080009C49886100BF9B4800690028FBD0002074
:101090009849886110209649886100BF9548006989
:1010A0000028FBD000209349886100BF9148006967
:1010B0000028FBD000208F49886100BF8D4800695F
:1010C0000028FBD000208B4988618B4800684008CD
:1010D000400089490860202048627047F8B50546FD
:1010E0000E4600BF834800690028FBD000208149DC
:1010F00088610860886148628048C8620120086091
:10110000FFF743FF002414E000270EE0285DC0072E
:10111000C00F002802D0FFF721FF01E0FFF707FF13
:10112000285D40102855781CC7B2082FEEDB601CE4
:1011300084B2B442E8DBFFF77CFFF8BD70B504462B
:101140000D466F4A002310E0E15C08465040C1B2F2
:1011500008014840C1B20802CE0070400E0970403C
:10116000160A70400246581C83B2AB42ECDB1002F8
:101170001604360E304380B270BD70B504460D467D
:1011800029462046FFF7DAFF064630126055681CF4
:10119000265470BD00BF574800690028FBD00020CE
:1011A0005449886110205249C86100BF5148006904
:1011B0000028FBD000204F49886110204C498861ED
:1011C000704700BF4B4800690028FBD00020494908
:1011D000886110204649886100BF464800690028A0
:1011E000FBD000204349886110204149C861704705
:1011F000002040490860886148627F20C862012061
:1012000008603D48006840084000401C3A490860BA
:1012100010203749C86100BF364800690028FBD05C
:10122000002034498861102031498861704700BF2F
:10123000304800690028FBD000202E4988612E48E4
:101240000068400840002C490860182048620020CF
:10125000284908608861486270472648006900286C
:1012600002D000202349886100BF2248006900287D
:10127000FBD000201F498861704770B50446FFF716
:10128000ECFFFFF7B5FF00250BE0E007C00F0028DB
:1012900002D0FFF77FFF01E0FFF793FF6410681CA7
:1012A000C5B2042DF1DBFFF7C2FF70BDFFB583B0FF
:1012B00005460E461746FFF7D0FFFFF799FF0024BB
:1012C0004BE000200090012001900020029023E0DC
:1012D000285D01990840002814D0FFF75BFF0098B3
:1012E000401CC0B200900FE0FFFF00000884000027
:1012F000400100480048004000180040FF01000085
:1013000063630000FFF75DFF01984006000E019047
:101310000298401CC0B2029002980828D8DB002F27
:101320000FD0E1100698405C6207520F80211141F6
:101330000840002802D0FFF72DFF0CE0FFF741FF27
:1013400009E00098C007C00F002802D0FFF739FF5E
:1013500001E0FFF71FFF601C84B2B442B1DBFFF76E
:1013600066FF07B0F0BD7047704770477047704721
:10137000002005498860086088621F20C86200203C
:10138000C8604862704700000048004070477047DE
:1013900010B502461748824201D8814201D9802007
:1013A00010BD00BF1448406A8006C00F0028F9D164
:1013B000114CA0622046006883B2022018430F4CF3
:1013C00020430D4C20600BE00020106000BF0A4855
:1013D000406A8006C00F0028F9D1FF32FF32023286
:1013E0008A42F1D905481843034C20602046406AE0
:1013F000C0B2D5E7FFFF00000020024000005A5AAB
:10140000014802498860704700005A5A0020024093
:1014100070B5024600238A4201D9802070BD104871
:10142000824201D8814201D98020F7E708E010010B
:10143000040C0120A040184383B2FF32FF32023275
:101440008A42F4D9002B01D18020E7E70548806863
:1014500085B2054828431843024EB0600020DDE7FE
:10146000FFFF00000020024000005A5A30B503463A
:101470009818401E174DA84201D9802030BD00BFEA
:101480001548406A8006C00F0028F9D1124DA862A5
:101490002846006884B201202043104D28430E4D99
:1014A00028600CE00878187000BF0B48406A80067E
:1014B000C00F0028F9D15B1C501E82B2491C002AC3
:1014C000F0D106482043044D28602846406AC0B247
:1014D000D4E70000FFFF00000020024000005A5A3D
:1014E00008B5009000BF00994A1E00920029FAD169
:1014F00008BD0000F0B5FFB082B0002455E0A002A6
:10150000032189034018C679E02E4CD0324621468B
:1015100066A000F049FFA20203239B03D218D11D4D
:10152000FF31FA31A202D018FFF772FFA2020323A3
:101530009B03D218D11DFF31FA31A202D018FFF758
:1015400027FF0746002F03D05EA000F02DFF02E02A
:1015500060A000F029FF002505E06248405D01A978
:101560004855681C85B2FF2011308542F5D3684686
:1015700000790019C1B268460171A10203229203E9
:1015800088180122520201A9FFF770FF0746A10245
:101590000322920388180122520201A9FFF766FF75
:1015A0000746FFF72DFF601CC4B2082CA7DB002400
:1015B00077E0A002072149034018867B122E6ED0E7
:1015C0003E2E6CD06D2E6AD03246214646A000F0E9
:1015D000EBFEA20207235B03D218D11DFF31FA31C3
:1015E000A202D018FFF714FFA20207235B03D21850
:1015F000D11DFF31FA31A202D018FFF7C9FE07460C
:10160000002F03D02FA000F0CFFE02E031A000F0A9
:10161000CBFE002505E03948405D01A94855681C0E
:1016200085B2182DF7D36846007A0019C1B2684612
:101630000172017A407A48406946897A4840694691
:10164000C97A484069460873A102072252038818E4
:101650000122520201A9FFF709FF0746002504E015
:10166000002001A94855681C85B2082DF8DB00252B
:1016700007E02348415D01AA284608301154681C40
:1016800085B2142DF5D3A102072252038818012236
:10169000520201A9FFF7EAFE0746FFF7B1FE601C00
:1016A000C4B2082C85DB7FB002B0F0BD31353639CD
:1016B0003320736C6F743A20256420253032780A09
:1016C000000000006572617365206572722E2E2E17
:1016D0000A0000006572617365206F6B2E2E2E0A62
:1016E00000000000842900004E74616720736C6F55
:1016F000743A20256420253032780A00AC2A000094
:10170000DC2A00007047704710B540204749C86187
:10171000002008604860454840308069182108432F
:101720004249403188610920C006C0697C21884354
:101730000921C906C86108460068782108430921C3
:10174000C906086008460069782108430921C906CE
:10175000086108460068042188430921C906086019
:1017600008464068042188430921C90648600420CE
:101770002E49C039886108460069082108400028C0
:1017800003D001202A49087002E00020284908708F
:101790002648C038006910210840002805D0254897
:1017A000007801210843234908702048C0380069A7
:1017B00020210840002805D01E4800780221084357
:1017C0001C4908701948C0380069402108400028A9
:1017D00005D01848007804210843164908700122F2
:1017E0002021124800F028F81048806907210905D7
:1017F00088430121090540180C4988610920C00669
:10180000806907210904884301210904401809213E
:10181000C9068861054880690721090288430121BA
:10182000890240180149886110BD0000000100488C
:101830000400002005000020012A01D1C16500E05C
:1018400081657047704700BFFEE77047704770477B
:10185000704700001248806907210903884303216B
:10186000490340180E49886186200E49086000200F
:1018700088620846C069890008430A49C8613F2058
:10188000C8621F200749403108602020054948628E
:101890000846006A89148843401802490862704764
:1018A0000001004800180040124880690721090320
:1018B00088430321490340180E49886186200E4958
:1018C0000860002088620846C069890008430A4908
:1018D000C8611F20C8620F200749403108601820E6
:1018E000054948620846006A89148843401802493D
:1018F000086270470001004800180040704700006F
:1019000010B500241648006B1021084314490863E1
:1019100003200921C906C86112481149C861084657
:101920004068114908430E49486000BF0C48C0692F
:101930000121C90408408842F8D1012000F06CF868
:10194000C4B2002C01D100F057F8084804490863DC
:1019500006482030886305482E38486310BD0000D3
:10196000004000400526210082015A5A32005A5A8E
:10197000704770477047000070B5002400260025AE
:10198000184800684607760F164880694004050F1E
:10199000002E06D0012E0CD0032E0CD0042E0FD119
:1019A0000BE0A800104A11581048FEF7A9FB0446A6
:1019B0000EE00F4C0CE00F4C0AE00124E40307E0BA
:1019C000A800094A11580948FEF79AFB044600BFCF
:1019D00000BF044800680006410F2046C840044686
:1019E000204670BD00400040082B0000006CDC0267
:1019F0000024F400208000000448406880B20449BC
:101A000040184008400001494860704700400040CD
:101A100000005A5A7047000070B50446002C05D0EB
:101A2000012C03D0032C01D0042C00D103E0344955
:101A300034A000F073FF002C06D0012C13D0032C2F
:101A40001AD0042C27D000BF38480069C007C00F47
:101A5000002805D0354800690005C00F002801D1D5
:101A6000012070BD32E031480069C004C00F002879
:101A700001D10120F5E729E02C4800690007C00FDB
:101A8000002805D0294800694004C00F002801D172
:101A90000120E6E71AE0254800698006C00F00280B
:101AA00011D122480069C006C00F00280BD01F4882
:101AB00000690004C00F002805D01C48006980069A
:101AC000C00F002801D00120CBE700BF00BF17489E
:101AD000006880B216494018C008C000204313496E
:101AE0000860FFF749FF054600F024F80F4800683A
:101AF0004007400FA04201D00120B2E70020B0E72C
:101B0000090200002E2E5C2E2E5C4C6962726172FE
:101B10006965735C7372635C637733326C30313048
:101B20005F7379736374726C2E6300000040004031
:101B300000005A5A01490860704700000000002068
:101B4000014802490860704700093D00000000207C
:101B500000B50C4909884805400D0B498969C90A37
:101B6000C9020143084A9161064949888805800DE8
:101B70001146096A890A890201431162FFF7E0FFF1
:101B800000BD0000C00710000040004070477047D3
:101B900000B587B0182101A8FEF7CFFAE120400276
:101BA0000190002168460181418107480390684601
:101BB00001824182818201830321C18201A90348FC
:101BC00000F03EF807B000BD80D19D01001000403C
:101BD00070B504460D460F48844202D00E48844238
:101BE00000D104E0FF2195310CA000F097FE002009
:101BF000002802D1002D00D004E0FF21963107A07B
:101C000000F08CFEE0692840002801D0012070BD62
:101C10000020FCE7000C0040001000402E2E5C2E3F
:101C20002E5C4C69627261726965735C7372635C8D
:101C3000637733326C3031305F756172742E6300BC
:101C4000F0B589B005460C46002600200890002714
:101C5000B648854202D0B648854200D103E08921CA
:101C6000B4A000F05BFE2068002804D0BA492068C8
:101C7000884200D803E08A21AEA000F04FFEA08881
:101C800000280DD0A08801214902884208D0A088F0
:101C90004900884204D0A08803214902884200D12B
:101CA00003E08B21A3A000F039FEE088002809D0D2
:101CB000E08801214903884204D0E0880321090318
:101CC000884200D103E08C219AA000F027FEA06892
:101CD000002804D0A149A068884200D803E08D21E3
:101CE00094A000F01BFEA089002804D0A089FF2149
:101CF0000131884200D103E08E218EA000F00EFE5B
:101D0000E089002805D0E089202802D0E089102849
:101D100000D103E08F2187A000F000FE208A002878
:101D200008D0208A082805D0208A0C2802D0208AD2
:101D3000042800D103E090217EA000F0EFFD608A2E
:101D400087490840002803D1608A002800D003E0BA
:101D5000912178A000F0E2FDA08A002808D0A08A96
:101D6000082805D0A08A042802D0A08A0C2800D117
:101D700003E092216FA000F0D1FD6C48404228188A
:101D8000002804D001218902401A14D109E07548C5
:101D9000806B80B2744940180821084371498863F8
:101DA0000AE07048806B80B26F49401810210843E8
:101DB0006C49886300E000BF00BFE088A188084349
:101DC000A1890843E1890843218A0843618A0843BD
:101DD0002968664A11400843286068680C218843D6
:101DE000A18A08436860208A002805D0286840211D
:101DF00088434030286003E02868402188432860F9
:101E0000A08800282FD121680801FEF729FB079040
:101E1000A068FEF725FB06900799FEF72FFA074604
:101E20003846FEF724FB86B23046FEF719FB3946EA
:101E30000190FEF7E2F98321C9050290FEF7E1F96E
:101E40000390FEF747FB0022494B05910490FEF7F3
:101E500053FA07910690FEF71FFB80B20890EE60E0
:101E60000898286160E0A0880121490288421BD1BE
:101E70002168C800FEF7F4FA0290A068FEF7F0FAB5
:101E800001900299FEF7FAF90390FEF723FB002276
:101E9000374B05910490FEF72FFA07910690FEF755
:101EA000FBFA86B2EE603FE0A088012189028842F9
:101EB0001BD121688800FEF7D3FA0290A068FEF7D4
:101EC000CFFA01900299FEF7D9F90390FEF702FBD1
:101ED0000022274B05910490FEF70EFA0791069019
:101EE000FEF7DAFA86B2EE601EE02068FEF7B8FA76
:101EF0000290A068FEF7B4FA8721C9050090FEF7AA
:101F000080F901900299FEF7B9F90390FEF7E2FA21
:101F10000022174B05910490FEF7EEF90791069009
:101F2000FEF7BAFA86B2EE6009B0F0BD000C0040D0
:101F3000001000402E2E5C2E2E5C4C696272617285
:101F40006965735C7372635C637733326C30313014
:101F50005F756172742E6300001BB700006CDC02B9
:101F6000FCFF00000040004000005A5AC8C8FFFFB4
:101F70000000E03F70B504460D460A48844202D096
:101F80000948844200D103E0452108A000F0C6FCC6
:101F9000FF2D00DC03E0462104A000F0BFFCA56299
:101FA00070BD0000000C0040001000402E2E5C2E82
:101FB0002E5C4C69627261726965735C7372635CFA
:101FC000637733326C3031305F756172742E630029
:101FD000704700000348C06B400840000149C863D7
:101FE000704700008000004010B50548406B01219B
:101FF0000843034948633220FFF772FA10BD00001E
:102000008000004010B5044621460F2000F00AF879
:102010000348406B082108430149486310BD000094
:102020008000004070B504460D46042D14D22046B1
:1020300000F0E2F92046002809DB00BF00BFC2061D
:10204000D20E01219140054A116000BF00BF00BFC0
:102050002946204600F0DCF970BD000000E100E0F8
:1020600010B50A480A494863572088631620086259
:102070000320FFF7C7FFFFF7ADFF0548406B0821BE
:10208000084303494863FFF7AFFF10BD1603000084
:102090008000004010B50A480A4948635C20886304
:1020A000162008620320FFF7ADFFFFF793FF0548F6
:1020B000406B0821084303494863FFF795FF10BDB3
:1020C000160300008000004070470000F0B506468F
:1020D000002E71D03F20AF4FF8620120386000BF62
:1020E000AC4800690028FBD00020AA4FB8613860D6
:1020F000B8617862FF20F862012038600121002475
:1021000012E000BFA34800690028FBD00020A14FC7
:10211000B8614900A048C06B02273840002801D0B0
:1021200001200143601C84B2072CEADB842961D1C1
:1021300000225DE00021002456E000BF95480069C0
:102140000028FBD00020934FB86149009248C06B33
:1021500002273840002801D001200143072C0DD16F
:1021600020290BD100208B4F3860B8617862732032
:102170008001F862012038601046F0BD1F2C31D17B
:102180000020864FB85400232AE08448805C8006F3
:10219000000E824FB854C8B2012815D004280CD0C4
:1021A000102802D0402816D116E07C48805C012718
:1021B00038437A4FB8540FE022E07848805C022719
:1021C0003843764FB85407E07448805C032738439F
:1021D000724FB85400E000BF00BF090A581CC3B2D8
:1021E000042BD2DB601C84B2202CA6DB501C82B2F4
:1021F000FF2A9FDD0020674F3860B8617862C6E033
:102200000420674FF8612720624FF8620120386090
:1022100000BF604800690028FBD000205D4FB86116
:102220003860B86178620024012149007F20F8629B
:102230000120386004205A4FB8615748C06B02270C
:102240003840002801D00120014302297ED100211D
:102250000025002324E049000420514FF86100BF0D
:102260004C4800690028FBD000204A4FB861042088
:102270004B4FB8614848C06B02273840002801D056
:1022800001200143D807C00F002807D06D10C807F0
:10229000C00F002802D0FF2001300543581CC3B2F4
:1022A000122BD8DB0807000F002803D00807000F07
:1022B000082811D100BF374800690028FBD0002052
:1022C000344FB8613860B86178623648F8620120EE
:1022D0003860324F3D7050E7304F3D7001224FE083
:1022E00000210025002347E0490004202C4FF8611D
:1022F00000BF284800690028FBD00020254FB861A6
:102300000420274FB8612448C06B022738400028BA
:1023100001D001200143D807C00F002807D06D105D
:10232000C807C00F002802D0FF20013005431B4F13
:10233000BD54032B1ED10807000F002803D0080747
:10234000000F082816D10420154F00E01AE0F861AC
:10235000B86100BF0F4800690028FBD000200D4F76
:10236000B8613860B86178620E48F8620120386060
:10237000104602E7581CC3B2122BB5DB501C82B2C8
:10238000FF2AADDD0020034F3860B861786200207D
:10239000F3E6000000480040800000400C000020F0
:1023A00040000048CF0600000FB410B503A9044B4D
:1023B000044A029800F078F810BC08BC04B0184732
:1023C00021290000080000202021020C01D010214A
:1023D0001046020A01D010460839020901D0104601
:1023E000091F820801D01046891E420801D0881EAC
:1023F0007047081A70470000002805DBC206D20E9D
:1024000001219140014A11607047000080E200E024
:1024100010B5002819DB1A4A03231B02D2188308BF
:102420009B00D2588307DC0EFF23A3409A438B07FF
:102430001B0E8407E40EA3401A43114B032424020D
:102440001B198408A4001A5118E00E4A03071B0F39
:10245000083B9B089B00D2588307DC0EFF23A34058
:102460009A438B071B0E8407E40EA3401A43054BC7
:102470000407240F083CA408A4001A5110BD000052
:1024800000E100E01CED00E002E008C8121F08C1F6
:10249000002AFAD170477047002001E001C1121FE5
:1024A000002AFBD170470000FFB591B00F460546EA
:1024B000002606E025280AD0149A139990476D1C2F
:1024C000761C28780028F5D1304615B0F0BD0024E0
:1024D00000940121F34A029400E004436D1C2B7820
:1024E0000846203B98401042F7D128782A280ED081
:1024F0000222287801463039092915D800990A2383
:1025000059433039401814436D1C0090F1E701CF56
:102510000090002805DA012040030443009840425F
:102520000090022004436D1C28782E2815D1042029
:10253000044368786D1C2A280AD101CF6D1C0290D3
:102540000BE002990A225143303940186D1C029069
:102550002878014630390929F3D928786C2810D019
:1025600006DC4C281AD068280ED06A2817D104E05F
:10257000742813D07A2812D110E0012040050443BA
:102580000CE00121090501E0032109050C436978EC
:10259000814203D10120000524186D1C6D1C287890
:1025A0006E281ED00CDC632831D004DC00288BD0D0
:1025B000582811D1B2E064287BD069280CD178E08A
:1025C00073282DD004DC6F2870D0702804D1A7E0C8
:1025D00075286CD078286BD0149A13999047761C84
:1025E00062E06002400F022807D003280AD00428C6
:1025F00038680AD006603F1D56E03868F11706605B
:102600004160F8E738680680F5E70670F3E7387848
:10261000694608740020487404A80390012003E070
:10262000386803900020C0433F1D61070FD500218B
:1026300001E00199491C029A0191914213DA814209
:10264000F7DB019A0399895C0029F2D10BE00021A4
:1026500001E00199491C01918142FADB019A039939
:10266000895C0029F5D101990098139A401A0090CD
:102670002146149B00F03CF901998019461807E0A7
:10268000039803990078491C0391149A1399904771
:102690000198401E0190401CF2D12146149B139AD0
:1026A000009800F015F986196D1C0AE741E033E047
:1026B00034E00A200021049005916002410F0229B4
:1026C00005D001CFC2179446032905D007E0FF1DAE
:1026D000FF08FF0003CF06E000B2C21794460429AA
:1026E00002D140B2C1178C4600226146944506DAF9
:1026F0000A460021404291418C462D2102E02105ED
:1027000004D52B216A461176012103E0E10701D0AF
:102710002021F7E7019155E00A200BE0102009E0A5
:102720001020049000210420044308200591029009
:1027300003E008200021059104906002410F022966
:1027400005D001CF00229446032906D006E0FF1DE4
:10275000FF08FF0003CF8C4603E080B2042900D1BC
:10276000C0B20021019121072CD52978039170294D
:1027700006D0049A1021059B4A401A4305D00EE06A
:1027800040216A461176012108E06146014306D0E6
:1027900030216A4611760399517602210191049AFB
:1027A0000821059B4A401A430CD16146014301D1DF
:1027B000610707D530216A461176012101910299FE
:1027C000491E02912978582904D037A103910FA9F5
:1027D0000F910DE039A1F9E76146059B049AFDF7D9
:1027E0008DFE039B8C469B5C0F9A521E0F921370BA
:1027F00061460143F0D10F9807A9081A20300390D1
:10280000600704D5012000048443029801E0012000
:1028100002900399884201DD401A00E0002041182F
:102820000290019809180098401A0090E00306D41D
:102830002146149B139A009800F05AF8861900203C
:10284000049008E006A9085C149A1399904704982C
:10285000401C761C049001998842F3DBE0030CD500
:102860002146149B139A009800F042F8861904E060
:10287000149A302013999047761C0299481E0290B2
:102880000029F5DC08E00F980F990078491C0F919A
:10289000149A13999047761C0399481E03900029B7
:1028A000F1DCFAE6092801003031323334353637AD
:1028B000383961626364656600000000303132338C
:1028C000343536373839414243444546000000002C
:1028D000F8B5044600251E461746880404D405E0D2
:1028E00039462020B0476D1C641EF9D52846F8BD36
:1028F000FFB50446002581B01E46C80301D5302728
:1029000000E02027880404D505E038460399B04745
:102910006D1C641EF9D5284605B0F0BD7047000057
:1029200070B504460D46E1B20548FFF723FB00BF32
:1029300001210348FFF74CF90028F9D0204670BD6B
:1029400000100040FEF7DCFFFEF7DEFEFFF720F987
:10295000FEF7D0FD0A480078002802D0FEF77AFF83
:1029600001E0FEF7A1FF06480078002802D0FFF73B
:1029700091FB01E0FFF774FBFEF7FAFC00BFFEE7F6
:10298000040000206A6E62D7D78007E000000000D4
:10299000000000006F6468656C6D6668753F6B6D64
:1029A000231F1F234C5C5165495458667C938895BE
:1029B00079967C988267899D335F5165B17AB59528
:1029C000034DAAB08AAB0FFCF5FE502C9E101A8561
:1029D000505C51650E00BECE535058555952545656
:1029E000534F585A595657592A0000000074A85C92
:1029F00058B8A8F4B99451E4E7A4DD6B641F91FBC7
:102A0000D60002F827D34EFF6358D4D99CEACB985E
:102A10009C2A8F0903BF4E4C45D61D8A5B73F8CBA9
:102A200073C584F7B2233D85807EE976D8315B5C3F
:102A3000D7CDE7E893B3CF746D944FBA23A162ED7D
:102A40000000000000000000000000000000000086
:102A50000000000000000000000000000000000076
:102A60000000000000000000000000000000000066
:102A70000000000000000000000000000000000056
:102A80000000000000000000000000000000000046
:102A90000000000004311DA001174503504800004C
:102AA000E11012000103A00C340300FE04311DA04C
:102AB0000117450350480000E1103E000300FE00EE
:102AC0000000000004311DA001174503504800001C
:102AD000E1106D000300FE0000000000000000BDDA
:102AE000040000FF00050000FFFFFFFF00000000E2
:102AF0000004040201000F0300040402010011039A
:102B00000004040201001303100000000100000093
:102B100002000000030000000400000005000000A7
:102B20000600000007000000080000000900000087
:102B30000A0000000B0000000C0000000D00000067
:102B40000E0000000F000000682B000000000020B5
:102B50000C00000088240000742B00000C000020F2
:102B6000040500009824000000093D0000003F3EDD
:042B70000000000061
:04000005000000C136
:00000001FF
